{
  "contractName": "PiStakingEpoch",
  "abi": [
    {
      "inputs": [
        {
          "internalType": "contract IERC20",
          "name": "_rewardToken",
          "type": "address"
        },
        {
          "internalType": "uint256",
          "name": "_rewardPerBlock",
          "type": "uint256"
        },
        {
          "internalType": "uint256",
          "name": "_startBlock",
          "type": "uint256"
        },
        {
          "internalType": "uint256",
          "name": "_bonusEndBlock",
          "type": "uint256"
        },
        {
          "internalType": "address",
          "name": "_adminAddress",
          "type": "address"
        },
        {
          "internalType": "address",
          "name": "_wpi",
          "type": "address"
        }
      ],
      "stateMutability": "nonpayable",
      "type": "constructor"
    },
    {
      "anonymous": false,
      "inputs": [
        {
          "indexed": true,
          "internalType": "address",
          "name": "user",
          "type": "address"
        },
        {
          "indexed": true,
          "internalType": "uint256",
          "name": "epoch",
          "type": "uint256"
        },
        {
          "indexed": false,
          "internalType": "uint256",
          "name": "amount",
          "type": "uint256"
        }
      ],
      "name": "Deposit",
      "type": "event"
    },
    {
      "anonymous": false,
      "inputs": [
        {
          "indexed": true,
          "internalType": "address",
          "name": "user",
          "type": "address"
        },
        {
          "indexed": false,
          "internalType": "uint256",
          "name": "amount",
          "type": "uint256"
        }
      ],
      "name": "EmergencyWithdraw",
      "type": "event"
    },
    {
      "anonymous": false,
      "inputs": [
        {
          "indexed": true,
          "internalType": "address",
          "name": "previousOwner",
          "type": "address"
        },
        {
          "indexed": true,
          "internalType": "address",
          "name": "newOwner",
          "type": "address"
        }
      ],
      "name": "OwnershipTransferred",
      "type": "event"
    },
    {
      "anonymous": false,
      "inputs": [
        {
          "indexed": true,
          "internalType": "address",
          "name": "user",
          "type": "address"
        },
        {
          "indexed": true,
          "internalType": "uint256",
          "name": "epoch",
          "type": "uint256"
        },
        {
          "indexed": false,
          "internalType": "uint256",
          "name": "amount",
          "type": "uint256"
        }
      ],
      "name": "Withdraw",
      "type": "event"
    },
    {
      "inputs": [],
      "name": "WPI",
      "outputs": [
        {
          "internalType": "address",
          "name": "",
          "type": "address"
        }
      ],
      "stateMutability": "view",
      "type": "function",
      "constant": true
    },
    {
      "inputs": [],
      "name": "adminAddress",
      "outputs": [
        {
          "internalType": "address",
          "name": "",
          "type": "address"
        }
      ],
      "stateMutability": "view",
      "type": "function",
      "constant": true
    },
    {
      "inputs": [
        {
          "internalType": "uint256",
          "name": "",
          "type": "uint256"
        }
      ],
      "name": "epochPool",
      "outputs": [
        {
          "internalType": "uint256",
          "name": "lastRewardBlock",
          "type": "uint256"
        },
        {
          "internalType": "uint256",
          "name": "accCakePerShare",
          "type": "uint256"
        },
        {
          "internalType": "uint256",
          "name": "totalAmount",
          "type": "uint256"
        },
        {
          "internalType": "uint256",
          "name": "startBlock",
          "type": "uint256"
        },
        {
          "internalType": "uint256",
          "name": "endBlock",
          "type": "uint256"
        }
      ],
      "stateMutability": "view",
      "type": "function",
      "constant": true
    },
    {
      "inputs": [],
      "name": "limitAmount",
      "outputs": [
        {
          "internalType": "uint256",
          "name": "",
          "type": "uint256"
        }
      ],
      "stateMutability": "view",
      "type": "function",
      "constant": true
    },
    {
      "inputs": [],
      "name": "owner",
      "outputs": [
        {
          "internalType": "address",
          "name": "",
          "type": "address"
        }
      ],
      "stateMutability": "view",
      "type": "function",
      "constant": true
    },
    {
      "inputs": [],
      "name": "renounceOwnership",
      "outputs": [],
      "stateMutability": "nonpayable",
      "type": "function"
    },
    {
      "inputs": [],
      "name": "rewardPerBlock",
      "outputs": [
        {
          "internalType": "uint256",
          "name": "",
          "type": "uint256"
        }
      ],
      "stateMutability": "view",
      "type": "function",
      "constant": true
    },
    {
      "inputs": [],
      "name": "rewardToken",
      "outputs": [
        {
          "internalType": "contract IERC20",
          "name": "",
          "type": "address"
        }
      ],
      "stateMutability": "view",
      "type": "function",
      "constant": true
    },
    {
      "inputs": [
        {
          "internalType": "address",
          "name": "newOwner",
          "type": "address"
        }
      ],
      "name": "transferOwnership",
      "outputs": [],
      "stateMutability": "nonpayable",
      "type": "function"
    },
    {
      "inputs": [
        {
          "internalType": "address",
          "name": "",
          "type": "address"
        }
      ],
      "name": "userInfo",
      "outputs": [
        {
          "internalType": "uint256",
          "name": "amount",
          "type": "uint256"
        },
        {
          "internalType": "uint256",
          "name": "rewardDebt",
          "type": "uint256"
        },
        {
          "internalType": "bool",
          "name": "inBlackList",
          "type": "bool"
        },
        {
          "internalType": "uint256",
          "name": "userEpoch",
          "type": "uint256"
        }
      ],
      "stateMutability": "view",
      "type": "function",
      "constant": true
    },
    {
      "stateMutability": "payable",
      "type": "receive",
      "payable": true
    },
    {
      "inputs": [
        {
          "internalType": "address",
          "name": "_adminAddress",
          "type": "address"
        }
      ],
      "name": "setAdmin",
      "outputs": [],
      "stateMutability": "nonpayable",
      "type": "function"
    },
    {
      "inputs": [
        {
          "internalType": "address",
          "name": "_blacklistAddress",
          "type": "address"
        }
      ],
      "name": "setBlackList",
      "outputs": [],
      "stateMutability": "nonpayable",
      "type": "function"
    },
    {
      "inputs": [
        {
          "internalType": "address",
          "name": "_blacklistAddress",
          "type": "address"
        }
      ],
      "name": "removeBlackList",
      "outputs": [],
      "stateMutability": "nonpayable",
      "type": "function"
    },
    {
      "inputs": [
        {
          "internalType": "uint256",
          "name": "_rewardCount",
          "type": "uint256"
        }
      ],
      "name": "setRewardPerBlock",
      "outputs": [],
      "stateMutability": "nonpayable",
      "type": "function"
    },
    {
      "inputs": [
        {
          "internalType": "uint256",
          "name": "_amount",
          "type": "uint256"
        }
      ],
      "name": "setLimitAmount",
      "outputs": [],
      "stateMutability": "nonpayable",
      "type": "function"
    },
    {
      "inputs": [
        {
          "internalType": "uint256",
          "name": "_startBlock",
          "type": "uint256"
        },
        {
          "internalType": "uint256",
          "name": "_bonusEndBlock",
          "type": "uint256"
        }
      ],
      "name": "addEpochPool",
      "outputs": [],
      "stateMutability": "nonpayable",
      "type": "function"
    },
    {
      "inputs": [
        {
          "internalType": "uint256",
          "name": "_epoch",
          "type": "uint256"
        },
        {
          "internalType": "uint256",
          "name": "_startBlock",
          "type": "uint256"
        },
        {
          "internalType": "uint256",
          "name": "_bonusEndBlock",
          "type": "uint256"
        }
      ],
      "name": "updateEpochPool",
      "outputs": [],
      "stateMutability": "nonpayable",
      "type": "function"
    },
    {
      "inputs": [
        {
          "internalType": "uint256",
          "name": "_from",
          "type": "uint256"
        },
        {
          "internalType": "uint256",
          "name": "_to",
          "type": "uint256"
        },
        {
          "internalType": "uint256",
          "name": "_epoch",
          "type": "uint256"
        }
      ],
      "name": "getMultiplier",
      "outputs": [
        {
          "internalType": "uint256",
          "name": "",
          "type": "uint256"
        }
      ],
      "stateMutability": "view",
      "type": "function",
      "constant": true
    },
    {
      "inputs": [
        {
          "internalType": "address",
          "name": "_user",
          "type": "address"
        }
      ],
      "name": "pendingReward",
      "outputs": [
        {
          "internalType": "uint256",
          "name": "",
          "type": "uint256"
        }
      ],
      "stateMutability": "view",
      "type": "function",
      "constant": true
    },
    {
      "inputs": [
        {
          "internalType": "uint256",
          "name": "_epoch",
          "type": "uint256"
        }
      ],
      "name": "updatePool",
      "outputs": [],
      "stateMutability": "nonpayable",
      "type": "function"
    },
    {
      "inputs": [],
      "name": "setMark",
      "outputs": [],
      "stateMutability": "nonpayable",
      "type": "function"
    },
    {
      "inputs": [],
      "name": "deposit",
      "outputs": [],
      "stateMutability": "payable",
      "type": "function",
      "payable": true
    },
    {
      "inputs": [
        {
          "internalType": "uint256",
          "name": "_amount",
          "type": "uint256"
        }
      ],
      "name": "withdraw",
      "outputs": [],
      "stateMutability": "nonpayable",
      "type": "function"
    },
    {
      "inputs": [],
      "name": "emergencyWithdraw",
      "outputs": [],
      "stateMutability": "nonpayable",
      "type": "function"
    },
    {
      "inputs": [
        {
          "internalType": "uint256",
          "name": "_amount",
          "type": "uint256"
        }
      ],
      "name": "emergencyRewardWithdraw",
      "outputs": [],
      "stateMutability": "nonpayable",
      "type": "function"
    },
    {
      "inputs": [
        {
          "internalType": "address",
          "name": "_user",
          "type": "address"
        }
      ],
      "name": "getStaking",
      "outputs": [
        {
          "internalType": "uint256",
          "name": "",
          "type": "uint256"
        }
      ],
      "stateMutability": "view",
      "type": "function",
      "constant": true
    },
    {
      "inputs": [
        {
          "internalType": "address",
          "name": "_user",
          "type": "address"
        }
      ],
      "name": "getUserEpoch",
      "outputs": [
        {
          "internalType": "uint256",
          "name": "",
          "type": "uint256"
        }
      ],
      "stateMutability": "view",
      "type": "function",
      "constant": true
    },
    {
      "inputs": [],
      "name": "getCurrentEpoch",
      "outputs": [
        {
          "internalType": "uint256",
          "name": "",
          "type": "uint256"
        }
      ],
      "stateMutability": "view",
      "type": "function",
      "constant": true
    },
    {
      "inputs": [
        {
          "internalType": "uint256",
          "name": "_epoch",
          "type": "uint256"
        }
      ],
      "name": "getEpochBlockNumber",
      "outputs": [
        {
          "internalType": "uint256",
          "name": "",
          "type": "uint256"
        },
        {
          "internalType": "uint256",
          "name": "",
          "type": "uint256"
        }
      ],
      "stateMutability": "view",
      "type": "function",
      "constant": true
    },
    {
      "inputs": [],
      "name": "getTotalSupply",
      "outputs": [
        {
          "internalType": "uint256",
          "name": "",
          "type": "uint256"
        }
      ],
      "stateMutability": "view",
      "type": "function",
      "constant": true
    },
    {
      "inputs": [
        {
          "internalType": "uint256",
          "name": "_epoch",
          "type": "uint256"
        }
      ],
      "name": "getPoolSupply",
      "outputs": [
        {
          "internalType": "uint256",
          "name": "",
          "type": "uint256"
        }
      ],
      "stateMutability": "view",
      "type": "function",
      "constant": true
    }
  ],
  "bytecode": "0x60806040526a084595161401484a00000060085534801561001f57600080fd5b5060405161203e38038061203e833981810160405260c081101561004257600080fd5b508051602082015160408301516060840151608085015160a090950151939492939192909160006100716101eb565b600080546001600160a01b0319166001600160a01b0383169081178255604051929350917f8be0079c531659141344cd1fd0a4f28419497f9722a3daafe3b4186f6b6457e0908290a350600180546001600160a01b03199081166001600160a01b03988916179091556004959095556002805486169287169290921790915560038054909416941693909317909155600060068190556040805160a0810182528381526020808201848152928201848152606083019586526080830196875293805260079052517f6d5257204ebe7d88fd91ae87941cb2dd9d8062b64ae5a2bd2d28ec40b9fbf6df55517f6d5257204ebe7d88fd91ae87941cb2dd9d8062b64ae5a2bd2d28ec40b9fbf6e055517f6d5257204ebe7d88fd91ae87941cb2dd9d8062b64ae5a2bd2d28ec40b9fbf6e155517f6d5257204ebe7d88fd91ae87941cb2dd9d8062b64ae5a2bd2d28ec40b9fbf6e255517f6d5257204ebe7d88fd91ae87941cb2dd9d8062b64ae5a2bd2d28ec40b9fbf6e3556101ef565b3390565b611e40806101fe6000396000f3fe60806040526004361061016c5760003560e01c806307fe7f3d1461018c57806311c88633146101a15780631959a002146101e65780631f107a451461023f5780632e1a7d4d146102695780633279beab1461029357806345cecdf8146102bd57806351eb05a6146102e757806359985e451461031157806362e65546146103425780636b65a3b9146103725780636d1aaf73146103a5578063704b6c02146103e8578063715018a61461041b578063727002411461043057806378abafaf146104635780637bafb029146104785780638ae39cac146104ae5780638da5cb5b146104c3578063a0535bd6146104d8578063b97dd9e21461050e578063bb872b4a14610523578063c4e41b221461054d578063d0e30db014610562578063d4533f121461056a578063db2e21bc146105bf578063e4997dc5146105d4578063f2fde38b14610607578063f40f0f521461063a578063f7c618c11461066d578063fc6f94681461068257610187565b36610187576003546001600160a01b0316331461018557fe5b005b600080fd5b34801561019857600080fd5b50610185610697565b3480156101ad57600080fd5b506101d4600480360360208110156101c457600080fd5b50356001600160a01b0316610784565b60408051918252519081900360200190f35b3480156101f257600080fd5b506102196004803603602081101561020957600080fd5b50356001600160a01b031661079f565b604080519485526020850193909352901515838301526060830152519081900360800190f35b34801561024b57600080fd5b506101856004803603602081101561026257600080fd5b50356107cc565b34801561027557600080fd5b506101856004803603602081101561028c57600080fd5b5035610829565b34801561029f57600080fd5b50610185600480360360208110156102b657600080fd5b5035610a4f565b3480156102c957600080fd5b506101d4600480360360208110156102e057600080fd5b5035610b7e565b3480156102f357600080fd5b506101856004803603602081101561030a57600080fd5b5035610b93565b34801561031d57600080fd5b50610326610c1e565b604080516001600160a01b039092168252519081900360200190f35b34801561034e57600080fd5b506101856004803603604081101561036557600080fd5b5080359060200135610c2d565b34801561037e57600080fd5b506101d46004803603602081101561039557600080fd5b50356001600160a01b0316610cf0565b3480156103b157600080fd5b506103cf600480360360208110156103c857600080fd5b5035610d0e565b6040805192835260208301919091528051918290030190f35b3480156103f457600080fd5b506101856004803603602081101561040b57600080fd5b50356001600160a01b0316610d2b565b34801561042757600080fd5b50610185610da5565b34801561043c57600080fd5b506101856004803603602081101561045357600080fd5b50356001600160a01b0316610e35565b34801561046f57600080fd5b506101d4610ea9565b34801561048457600080fd5b506101d46004803603606081101561049b57600080fd5b5080359060208101359060400135610eaf565b3480156104ba57600080fd5b506101d4610f05565b3480156104cf57600080fd5b50610326610f0b565b3480156104e457600080fd5b50610185600480360360608110156104fb57600080fd5b5080359060208101359060400135610f1a565b34801561051a57600080fd5b506101d4610feb565b34801561052f57600080fd5b506101856004803603602081101561054657600080fd5b5035610ff1565b34801561055957600080fd5b506101d461104e565b6101856110ca565b34801561057657600080fd5b506105946004803603602081101561058d57600080fd5b50356113ac565b6040805195865260208601949094528484019290925260608401526080830152519081900360a00190f35b3480156105cb57600080fd5b506101856113db565b3480156105e057600080fd5b50610185600480360360208110156105f757600080fd5b50356001600160a01b03166114aa565b34801561061357600080fd5b506101856004803603602081101561062a57600080fd5b50356001600160a01b031661151b565b34801561064657600080fd5b506101d46004803603602081101561065d57600080fd5b50356001600160a01b0316611601565b34801561067957600080fd5b50610326611720565b34801561068e57600080fd5b5061032661172f565b3360009081526005602090815260408083206003810154808552600790935292206106c182610b93565b82541561072357600061070284600101546106fc64e8d4a510006106f68660010154896000015461173e90919063ffffffff16565b906117a0565b906117df565b9050801561072157600154610721906001600160a01b03163383611821565b505b82546002820154610733916117df565b60028083019190915560068054600386015560006001860181905590548152600760205260409020845491810154909161076d9190611878565b600282015560065461077e90610b93565b50505050565b6001600160a01b031660009081526005602052604090205490565b60056020526000908152604090208054600182015460028301546003909301549192909160ff9091169084565b6107d46118d0565b6000546001600160a01b03908116911614610824576040805162461bcd60e51b81526020600482018190526024820152600080516020611d7f833981519152604482015290519081900360640190fd5b600855565b3360009081526005602052604090208054821115610883576040805162461bcd60e51b81526020600482015260126024820152711dda5d1a191c985dce881b9bdd0819dbdbd960721b604482015290519081900360640190fd5b6003810154600081815260076020526040902060028101548411156108ef576040805162461bcd60e51b815260206004820152601e60248201527f77697468647261773a206e6f7420676f6f6420706f6f6c20616d6f756e740000604482015290519081900360640190fd5b6108f882610b93565b600061092684600101546106fc64e8d4a510006106f68660010154896000015461173e90919063ffffffff16565b905060008111801561093d5750600284015460ff16155b1561095957600154610959906001600160a01b03163383611821565b84156109f157835461096b90866117df565b845560035460408051632e1a7d4d60e01b81526004810188905290516001600160a01b0390921691632e1a7d4d9160248082019260009290919082900301818387803b1580156109ba57600080fd5b505af11580156109ce573d6000803e3d6000fd5b505050506109dc33866118d4565b60028201546109eb90866117df565b60028301555b60018201548454610a0c9164e8d4a51000916106f69161173e565b6001850155604080518681529051849133917ff279e6a1f5e320cca91135676d9cb6e44ca8a08c0b88342bcdb1144f6511b5689181900360200190a35050505050565b610a576118d0565b6000546001600160a01b03908116911614610aa7576040805162461bcd60e51b81526020600482018190526024820152600080516020611d7f833981519152604482015290519081900360640190fd5b600154604080516370a0823160e01b815230600482015290516001600160a01b03909216916370a0823191602480820192602092909190829003018186803b158015610af257600080fd5b505afa158015610b06573d6000803e3d6000fd5b505050506040513d6020811015610b1c57600080fd5b50518110610b64576040805162461bcd60e51b815260206004820152601060248201526f3737ba1032b737bab3b4103a37b5b2b760811b604482015290519081900360640190fd5b600154610b7b906001600160a01b03163383611821565b50565b60009081526007602052604090206002015490565b600081815260076020526040902080544311610baf5750610b7b565b600281015480610bc25750439055610b7b565b6000610bd383600001544386610eaf565b90506000610bec6004548361173e90919063ffffffff16565b9050610c0f610c04846106f68464e8d4a5100061173e565b600186015490611878565b60018501555050439091555050565b6003546001600160a01b031681565b610c356118d0565b6000546001600160a01b03908116911614610c85576040805162461bcd60e51b81526020600482018190526024820152600080516020611d7f833981519152604482015290519081900360640190fd5b600654610c93906001611878565b60068190556040805160a08101825284815260006020808301828152838501838152606085019889526080850197885295835260079091529290209051815590516001820155905160028201559151600383015551600490910155565b6001600160a01b031660009081526005602052604090206003015490565b600090815260076020526040902060038101546004909101549091565b610d336118d0565b6000546001600160a01b03908116911614610d83576040805162461bcd60e51b81526020600482018190526024820152600080516020611d7f833981519152604482015290519081900360640190fd5b600280546001600160a01b0319166001600160a01b0392909216919091179055565b610dad6118d0565b6000546001600160a01b03908116911614610dfd576040805162461bcd60e51b81526020600482018190526024820152600080516020611d7f833981519152604482015290519081900360640190fd5b600080546040516001600160a01b0390911690600080516020611d9f833981519152908390a3600080546001600160a01b0319169055565b6002546001600160a01b03163314610e82576040805162461bcd60e51b815260206004820152600b60248201526a61646d696e3a207775743f60a81b604482015290519081900360640190fd5b6001600160a01b03166000908152600560205260409020600201805460ff19166001179055565b60085481565b600081815260076020526040812060048101548411610eda57610ed284866117df565b915050610efe565b80600401548510610eef576000915050610efe565b6004810154610ed290866117df565b9392505050565b60045481565b6000546001600160a01b031690565b610f226118d0565b6000546001600160a01b03908116911614610f72576040805162461bcd60e51b81526020600482018190526024820152600080516020611d7f833981519152604482015290519081900360640190fd5b600654831115610fc9576040805162461bcd60e51b815260206004820152601f60248201527f50695374616b696e675769746845706f63683a2077726f6e672065706f636800604482015290519081900360640190fd5b6000928352600760205260409092206003810182905560048101929092559055565b60065490565b610ff96118d0565b6000546001600160a01b03908116911614611049576040805162461bcd60e51b81526020600482018190526024820152600080516020611d7f833981519152604482015290519081900360640190fd5b600455565b600354604080516370a0823160e01b815230600482015290516000926001600160a01b0316916370a08231916024808301926020929190829003018186803b15801561109957600080fd5b505afa1580156110ad573d6000803e3d6000fd5b505050506040513d60208110156110c357600080fd5b5051905090565b6006546000908152600760209081526040808320338452600590925290912080546110f85760065460038201555b60065481600301541461113c5760405162461bcd60e51b8152600401808060200182810382526027815260200180611d116027913960400191505060405180910390fd5b600854815461114b9034611878565b111561118f576040805162461bcd60e51b815260206004820152600e60248201526d06578636565642074686520746f760941b604482015290519081900360640190fd5b600281015460ff16156111d9576040805162461bcd60e51b815260206004820152600d60248201526c1a5b88189b1858dac81b1a5cdd609a1b604482015290519081900360640190fd5b6111e4600654610b93565b80541561123a57600061121982600101546106fc64e8d4a510006106f68760010154876000015461173e90919063ffffffff16565b9050801561123857600154611238906001600160a01b03163383611821565b505b341561134f57600360009054906101000a90046001600160a01b03166001600160a01b031663d0e30db0346040518263ffffffff1660e01b81526004016000604051808303818588803b15801561129057600080fd5b505af11580156112a4573d6000803e3d6000fd5b50506003546040805163a9059cbb60e01b815230600482015234602482015290516001600160a01b03909216945063a9059cbb935060448082019350602092918290030181600087803b1580156112fa57600080fd5b505af115801561130e573d6000803e3d6000fd5b505050506040513d602081101561132457600080fd5b505161132c57fe5b80546113389034611878565b815560028201546113499034611878565b60028301555b6001820154815461136a9164e8d4a51000916106f69161173e565b600182015560065460408051348152905133917f90890809c654f11d6e72a28fa60149770a0d11ec6c92319d6ceb2bb0a4ea1a15919081900360200190a35050565b600760205260009081526040902080546001820154600283015460038401546004909401549293919290919085565b33600090815260056020526040902080541561146657600354815460408051632e1a7d4d60e01b81526004810192909252516001600160a01b0390921691632e1a7d4d9160248082019260009290919082900301818387803b15801561144057600080fd5b505af1158015611454573d6000803e3d6000fd5b505050506114663382600001546118d4565b8054604080519182525133917f5fafa99d0643513820be26656b45130b01e1c03062e1266bf36f88cbd3bd9695919081900360200190a26000808255600190910155565b6002546001600160a01b031633146114f7576040805162461bcd60e51b815260206004820152600b60248201526a61646d696e3a207775743f60a81b604482015290519081900360640190fd5b6001600160a01b03166000908152600560205260409020600201805460ff19169055565b6115236118d0565b6000546001600160a01b03908116911614611573576040805162461bcd60e51b81526020600482018190526024820152600080516020611d7f833981519152604482015290519081900360640190fd5b6001600160a01b0381166115b85760405162461bcd60e51b8152600401808060200182810382526026815260200180611ceb6026913960400191505060405180910390fd5b600080546040516001600160a01b0380851693921691600080516020611d9f83398151915291a3600080546001600160a01b0319166001600160a01b0392909216919091179055565b6001600160a01b03811660009081526005602052604081206003810154600654811115611673576040805162461bcd60e51b815260206004820152601b60248201527a0a0d2a6e8c2d6d2dcce8ae0dec6d07440eee4dedcce40cae0dec6d602b1b604482015290519081900360640190fd5b60008181526007602052604090206001810154600282015482544311801561169a57508015155b156116ed5760006116b084600001544387610eaf565b905060006116c96004548361173e90919063ffffffff16565b90506116e86116e1846106f68464e8d4a5100061173e565b8590611878565b935050505b61171585600101546106fc64e8d4a510006106f6868a6000015461173e90919063ffffffff16565b979650505050505050565b6001546001600160a01b031681565b6002546001600160a01b031681565b60008261174d5750600061179a565b8282028284828161175a57fe5b04146117975760405162461bcd60e51b8152600401808060200182810382526021815260200180611d5e6021913960400191505060405180910390fd5b90505b92915050565b600061179783836040518060400160405280601a815260200179536166654d6174683a206469766973696f6e206279207a65726f60301b815250611969565b600061179783836040518060400160405280601e81526020017f536166654d6174683a207375627472616374696f6e206f766572666c6f770000815250611a0b565b604080516001600160a01b038416602482015260448082018490528251808303909101815260649091019091526020810180516001600160e01b031663a9059cbb60e01b179052611873908490611a65565b505050565b600082820183811015611797576040805162461bcd60e51b815260206004820152601b60248201527a536166654d6174683a206164646974696f6e206f766572666c6f7760281b604482015290519081900360640190fd5b3390565b6040516000906001600160a01b038416906159d890849084818181858888f193505050503d8060008114611924576040519150601f19603f3d011682016040523d82523d6000602084013e611929565b606091505b50509050806118735760405162461bcd60e51b8152600401808060200182810382526022815260200180611dbf6022913960400191505060405180910390fd5b600081836119f55760405162461bcd60e51b81526004018080602001828103825283818151815260200191508051906020019080838360005b838110156119ba5781810151838201526020016119a2565b50505050905090810190601f1680156119e75780820380516001836020036101000a031916815260200191505b509250505060405180910390fd5b506000838581611a0157fe5b0495945050505050565b60008184841115611a5d5760405162461bcd60e51b81526020600482018181528351602484015283519092839260449091019190850190808383600083156119ba5781810151838201526020016119a2565b505050900390565b6060611aba826040518060400160405280602081526020017f5361666545524332303a206c6f772d6c6576656c2063616c6c206661696c6564815250856001600160a01b0316611b169092919063ffffffff16565b80519091501561187357808060200190516020811015611ad957600080fd5b50516118735760405162461bcd60e51b815260040180806020018281038252602a815260200180611de1602a913960400191505060405180910390fd5b6060611b258484600085611b2d565b949350505050565b606082471015611b6e5760405162461bcd60e51b8152600401808060200182810382526026815260200180611d386026913960400191505060405180910390fd5b611b7785611c7e565b611bc8576040805162461bcd60e51b815260206004820152601d60248201527f416464726573733a2063616c6c20746f206e6f6e2d636f6e7472616374000000604482015290519081900360640190fd5b60006060866001600160a01b031685876040518082805190602001908083835b60208310611c075780518252601f199092019160209182019101611be8565b6001836020036101000a03801982511681845116808217855250505050505090500191505060006040518083038185875af1925050503d8060008114611c69576040519150601f19603f3d011682016040523d82523d6000602084013e611c6e565b606091505b5091509150611715828286611c84565b3b151590565b60608315611c93575081610efe565b825115611ca35782518084602001fd5b60405162461bcd60e51b81526020600482018181528451602484015284518593919283926044019190850190808383600083156119ba5781810151838201526020016119a256fe4f776e61626c653a206e6577206f776e657220697320746865207a65726f206164647265737350695374616b696e675769746845706f63683a20757365722065706f63682069732077726f6e67416464726573733a20696e73756666696369656e742062616c616e636520666f722063616c6c536166654d6174683a206d756c7469706c69636174696f6e206f766572666c6f774f776e61626c653a2063616c6c6572206973206e6f7420746865206f776e65728be0079c531659141344cd1fd0a4f28419497f9722a3daafe3b4186f6b6457e05472616e7366657248656c7065723a2050495f5452414e534645525f4641494c45445361666545524332303a204552433230206f7065726174696f6e20646964206e6f742073756363656564a26469706673582212203c6b2108f92498011eee80c713a1882bfa0aff287da89dc137d379b24ad3261564736f6c634300060c0033",
  "immutableReferences": {},
  "source": "// SPDX-License-Identifier: UNLICENSED\npragma solidity >=0.6.0 <0.8.0;\n\nimport \"@openzeppelin/contracts/access/Ownable.sol\";\nimport \"@openzeppelin/contracts/math/SafeMath.sol\";\nimport \"@openzeppelin/contracts/token/ERC20/IERC20.sol\";\n\nimport \"@openzeppelin/contracts/token/ERC20/SafeERC20.sol\";\n\ninterface IWPI {\n    function deposit() external payable;\n    function transfer(address to, uint256 value) external returns (bool);\n    function withdraw(uint256) external;\n    function balanceOf(address usr) external view returns (uint256);\n}\n\ncontract PiStakingEpoch is Ownable {\n    using SafeMath for uint256;\n    using SafeERC20 for IERC20;\n\n    // Info of each user.\n    struct UserInfo {\n        uint256 amount;     // How many PI tokens the user has staked.\n        uint256 rewardDebt; // Reward debt. \n        bool inBlackList;\n        uint256 userEpoch;\n    }\n\n    // Info of each pool.\n    struct PoolInfo {\n        uint256 lastRewardBlock;  // Last block number that PNFT distribution occurs.\n        uint256 accCakePerShare; // Accumulated PNFT per share, times 1e12. See below.\n\n        uint256 totalAmount; // The total amount of current epoch\n        uint256 startBlock; // The block number when Token mining starts.\n        uint256 endBlock; // The block number when Token mining ends.\n    }\n\n    // The REWARD TOKEN: PNFT\n    IERC20 public rewardToken;\n\n    // adminAddress\n    address public adminAddress;\n\n    // WPI contract address\n    address public WPI;\n\n    // PNFT tokens created per block.\n    uint256 public rewardPerBlock;\n\n    // Info of each user that stakes PI tokens.\n    mapping (address => UserInfo) public userInfo;\n\n    //current epoch\n    uint256 internal currentEpoch;\n    //Info of each epoch that use pool info\n    mapping(uint256 => PoolInfo) public epochPool;\n\n    // limit 10000000 PI here\n    uint256 public limitAmount = 10000000000000000000000000;\n\n    event Deposit(address indexed user, uint256 indexed epoch, uint256 amount);\n    event Withdraw(address indexed user, uint256 indexed epoch, uint256 amount);\n    event EmergencyWithdraw(address indexed user, uint256 amount);\n\n    constructor(\n        IERC20 _rewardToken,\n        uint256 _rewardPerBlock,\n        uint256 _startBlock,\n        uint256 _bonusEndBlock,\n        address _adminAddress,\n        address _wpi\n    ) public {\n        rewardToken = _rewardToken;\n        rewardPerBlock = _rewardPerBlock;\n\n        adminAddress = _adminAddress;\n        WPI = _wpi;\n\n        currentEpoch = 0;\n\n        // staking pool\n        epochPool[currentEpoch] = PoolInfo({\n            lastRewardBlock: _startBlock,\n            accCakePerShare: 0,\n            totalAmount: 0,\n            startBlock: _startBlock,\n            endBlock: _bonusEndBlock\n        });\n    }\n\n    modifier onlyAdmin() {\n        require(msg.sender == adminAddress, \"admin: wut?\");\n        _;\n    }\n\n    receive() external payable {\n        assert(msg.sender == WPI); // only accept PI via fallback from the WPI contract\n    }\n\n    // Update admin address by the previous dev.\n    function setAdmin(address _adminAddress) public onlyOwner {\n        adminAddress = _adminAddress;\n    }\n\n    function setBlackList(address _blacklistAddress) public onlyAdmin {\n        userInfo[_blacklistAddress].inBlackList = true;\n    }\n\n    function removeBlackList(address _blacklistAddress) public onlyAdmin {\n        userInfo[_blacklistAddress].inBlackList = false;\n    }\n\n    function setRewardPerBlock(uint256 _rewardCount) public onlyOwner {\n        rewardPerBlock = _rewardCount;\n    }\n\n    // Set the limit amount. Can only be called by the owner.\n    function setLimitAmount(uint256 _amount) public onlyOwner {\n        limitAmount = _amount;\n    }\n\n    //add pool info for next epoch\n    function addEpochPool(uint256 _startBlock, uint256 _bonusEndBlock) public onlyOwner {\n        currentEpoch = currentEpoch.add(1);\n\n        // staking pool\n        epochPool[currentEpoch] = PoolInfo({\n            lastRewardBlock: _startBlock,\n            accCakePerShare: 0,\n            totalAmount: 0,\n            startBlock: _startBlock,\n            endBlock: _bonusEndBlock\n        });\n    }\n\n    //update pool info for specific epoch\n    function updateEpochPool(uint256  _epoch, uint256 _startBlock, uint256 _bonusEndBlock ) public onlyOwner {\n        require(_epoch <= currentEpoch, \"PiStakingWithEpoch: wrong epoch\");\n\n        PoolInfo storage pool = epochPool[_epoch];\n        pool.startBlock = _startBlock;\n        pool.endBlock = _bonusEndBlock;\n        pool.lastRewardBlock = _startBlock;\n    }\n\n    // Return reward multiplier over the given _from to _to block.\n    function getMultiplier(uint256 _from, uint256 _to,uint256 _epoch) public view returns (uint256) {\n        PoolInfo storage pool = epochPool[_epoch];\n\n        if (_to <= pool.endBlock) {\n            return _to.sub(_from);\n        } else if (_from >= pool.endBlock) {\n            return 0;\n        } else {\n            return pool.endBlock.sub(_from);\n        }\n    }\n\n    // View function to see pending Reward on frontend.the real reward you get is not this value\n    function pendingReward(address _user) external view returns (uint256) {\n        UserInfo storage user = userInfo[_user];\n        uint256 _epoch = user.userEpoch;\n        require(_epoch <= currentEpoch, \"PiStakingEpoch: wrong epoch\");\n\n        PoolInfo storage pool = epochPool[_epoch];\n\n        uint256 accCakePerShare = pool.accCakePerShare;\n        uint256 lpSupply = pool.totalAmount;\n\n        if (block.number > pool.lastRewardBlock && lpSupply != 0) {\n            uint256 multiplier = getMultiplier(pool.lastRewardBlock, block.number, _epoch);\n            uint256 tokenReward = multiplier.mul(rewardPerBlock);\n\n            accCakePerShare = accCakePerShare.add(tokenReward.mul(1e12).div(lpSupply));\n        }\n        return user.amount.mul(accCakePerShare).div(1e12).sub(user.rewardDebt);\n    }\n\n    // Update reward variables of the given pool to be up-to-date.\n    function updatePool(uint256 _epoch) public {\n        PoolInfo storage pool = epochPool[_epoch];\n\n        if (block.number <= pool.lastRewardBlock) {\n            return;\n        }\n        uint256 lpSupply = pool.totalAmount;\n        if (lpSupply == 0) {\n            pool.lastRewardBlock = block.number;\n            return;\n        }\n        uint256 multiplier = getMultiplier(pool.lastRewardBlock, block.number, _epoch);\n        uint256 tokenReward = multiplier.mul(rewardPerBlock);\n\n        pool.accCakePerShare = pool.accCakePerShare.add(tokenReward.mul(1e12).div(lpSupply));\n        pool.lastRewardBlock = block.number;\n    }\n\n    function setMark() external {\n        UserInfo storage user = userInfo[msg.sender];\n\n        uint256 oldEpoch = user.userEpoch;\n        PoolInfo storage oldPool = epochPool[oldEpoch];\n\n        updatePool(oldEpoch);\n        if (user.amount > 0) {\n             uint256 pending = user.amount.mul(oldPool.accCakePerShare).div(1e12).sub(user.rewardDebt);\n            if(pending > 0) {\n                rewardToken.safeTransfer(address(msg.sender), pending);\n            }\n        }\n        oldPool.totalAmount = oldPool.totalAmount.sub(user.amount);\n        user.userEpoch = currentEpoch;\n        user.rewardDebt = 0;\n\n        PoolInfo storage currentPool = epochPool[currentEpoch];\n\n        currentPool.totalAmount = currentPool.totalAmount.add(user.amount); \n        updatePool(currentEpoch);\n    }\n\n    // Stake tokens to SmartChef\n    function deposit() public payable {\n        PoolInfo storage pool = epochPool[currentEpoch];\n\n        UserInfo storage user = userInfo[msg.sender];\n\n        if (user.amount == 0) {\n            user.userEpoch = currentEpoch;\n        }\n\n        require(user.userEpoch == currentEpoch, \"PiStakingWithEpoch: user epoch is wrong\");\n\n        require (user.amount.add(msg.value) <= limitAmount, 'exceed the top');\n        require (!user.inBlackList, 'in black list');\n\n        updatePool(currentEpoch);\n        if (user.amount > 0) {\n            uint256 pending = user.amount.mul(pool.accCakePerShare).div(1e12).sub(user.rewardDebt);\n            if(pending > 0) {\n                rewardToken.safeTransfer(address(msg.sender), pending);\n            }\n        }\n        if(msg.value > 0) {\n            IWPI(WPI).deposit{value: msg.value}();\n            assert(IWPI(WPI).transfer(address(this), msg.value));\n            user.amount = user.amount.add(msg.value);\n\n            pool.totalAmount =  pool.totalAmount.add(msg.value);\n        }\n        user.rewardDebt = user.amount.mul(pool.accCakePerShare).div(1e12);\n\n        emit Deposit(msg.sender,currentEpoch, msg.value);\n    }\n\n    function safeTransferPI(address to, uint256 value) internal {\n        (bool success, ) = to.call{gas: 23000, value: value}(\"\");\n\n        require(success, 'TransferHelper: PI_TRANSFER_FAILED');\n    }\n\n    // Withdraw tokens from STAKING.\n    function withdraw(uint256 _amount) public {\n        UserInfo storage user = userInfo[msg.sender];\n        require(user.amount >= _amount, \"withdraw: not good\");\n\n        uint256 userEpoch = user.userEpoch;\n\n        PoolInfo storage pool = epochPool[userEpoch];\n\n        require(pool.totalAmount >= _amount, \"withdraw: not good pool amount\");\n\n        updatePool(userEpoch);\n        uint256 pending = user.amount.mul(pool.accCakePerShare).div(1e12).sub(user.rewardDebt);\n        if(pending > 0 && !user.inBlackList) {\n            rewardToken.safeTransfer(address(msg.sender), pending);\n        }\n\n        if(_amount > 0) {\n            user.amount = user.amount.sub(_amount);\n            IWPI(WPI).withdraw(_amount);\n            safeTransferPI(address(msg.sender), _amount);\n\n            pool.totalAmount = pool.totalAmount.sub(_amount);\n        }\n        user.rewardDebt = user.amount.mul(pool.accCakePerShare).div(1e12);\n\n        emit Withdraw(msg.sender,userEpoch, _amount);\n    }\n\n    // Withdraw without caring about rewards. EMERGENCY ONLY.\n    function emergencyWithdraw() public {\n        UserInfo storage user = userInfo[msg.sender];\n\n        if (user.amount > 0) {\n            IWPI(WPI).withdraw(user.amount);\n            safeTransferPI(address(msg.sender), user.amount);\n        }\n \n        emit EmergencyWithdraw(msg.sender, user.amount);\n        user.amount = 0;\n        user.rewardDebt = 0;\n    }\n\n    // Withdraw reward. EMERGENCY ONLY.\n    function emergencyRewardWithdraw(uint256 _amount) public onlyOwner {\n        require(_amount < rewardToken.balanceOf(address(this)), 'not enough token');\n        rewardToken.safeTransfer(address(msg.sender), _amount);\n    }\n\n    function getStaking(address _user) public view returns (uint256) {\n        UserInfo storage user = userInfo[_user];\n        return user.amount;\n    }\n\n    function getUserEpoch(address _user) public view returns (uint256) {\n        UserInfo storage user = userInfo[_user];\n        return user.userEpoch;\n    }\n\n    function getCurrentEpoch() public view returns (uint256) {\n        return currentEpoch;\n    }\n\n    function getEpochBlockNumber(uint256 _epoch) public view returns (uint256, uint256) {\n        PoolInfo storage pool = epochPool[_epoch];\n\n        return (pool.startBlock, pool.endBlock);\n    }\n\n    function getTotalSupply() public view returns (uint256) {\n        return IWPI(WPI).balanceOf(address(this));\n    }\n\n    function getPoolSupply(uint256 _epoch) public view returns (uint256) {\n        PoolInfo storage pool = epochPool[_epoch];\n\n        return pool.totalAmount;\n    }\n}",
  "sourcePath": "/Users/simon/gopath/src/github.com/Pizzap-io/PiSwap/contracts/staking/PiStakingWithEpoch.sol",
  "compiler": {
    "name": "solc",
    "version": "0.6.12+commit.27d51765.Emscripten.clang"
  },
  "schemaVersion": "3.4.1",
  "updatedAt": "2021-09-02T02:24:33.999Z",
  "networkType": "ethereum",
  "devdoc": {
    "kind": "dev",
    "methods": {
      "owner()": {
        "details": "Returns the address of the current owner."
      },
      "renounceOwnership()": {
        "details": "Leaves the contract without owner. It will not be possible to call `onlyOwner` functions anymore. Can only be called by the current owner. NOTE: Renouncing ownership will leave the contract without an owner, thereby removing any functionality that is only available to the owner."
      },
      "transferOwnership(address)": {
        "details": "Transfers ownership of the contract to a new account (`newOwner`). Can only be called by the current owner."
      }
    },
    "version": 1
  },
  "userdoc": {
    "kind": "user",
    "methods": {},
    "version": 1
  }
}